{"contracts/FtsoV2FeedConsumer.sol":{"FtsoV2FeedConsumer":{"abi":[{"inputs":[],"stateMutability":"nonpayable","type":"constructor"},{"inputs":[],"name":"flrUsdId","outputs":[{"internalType":"bytes21","name":"","type":"bytes21"}],"stateMutability":"view","type":"function"},{"inputs":[],"name":"getAvailablePriceFeedNames","outputs":[{"internalType":"string[]","name":"feedNames","type":"string[]"}],"stateMutability":"view","type":"function"},{"inputs":[],"name":"getAvailablePriceFeeds","outputs":[{"internalType":"bytes21[]","name":"","type":"bytes21[]"}],"stateMutability":"view","type":"function"},{"inputs":[],"name":"getCurrentPrice","outputs":[{"internalType":"uint256","name":"","type":"uint256"},{"internalType":"int8","name":"","type":"int8"},{"internalType":"uint64","name":"","type":"uint64"}],"stateMutability":"view","type":"function"},{"inputs":[{"internalType":"bytes21","name":"feedId","type":"bytes21"}],"name":"getFeedPrice","outputs":[{"internalType":"uint256","name":"","type":"uint256"},{"internalType":"int8","name":"","type":"int8"},{"internalType":"uint64","name":"","type":"uint64"}],"stateMutability":"view","type":"function"},{"inputs":[{"internalType":"string","name":"feedName","type":"string"}],"name":"getFeedPriceByName","outputs":[{"internalType":"uint256","name":"","type":"uint256"},{"internalType":"int8","name":"","type":"int8"},{"internalType":"uint64","name":"","type":"uint64"}],"stateMutability":"view","type":"function"},{"inputs":[],"name":"getFlrUsdPrice","outputs":[{"internalType":"uint256","name":"","type":"uint256"},{"internalType":"int8","name":"","type":"int8"},{"internalType":"uint64","name":"","type":"uint64"}],"stateMutability":"view","type":"function"}],"evm":{"bytecode":{"linkReferences":{},"object":"6080604052600280546001600160a81b031916665193148bd554d1606a1b17905534801561002c57600080fd5b50610035610082565b600080546001600160a01b0319166001600160a01b039290921691909117905561005d61014b565b600180546001600160a01b0319166001600160a01b03929092169190911790556101e1565b600073ad67fe66660fb8dfe9d6b1b4240d8650e30f60196001600160a01b031663159354a26040516020016100d190602080825260069082015265233a39b7ab1960d11b604082015260600190565b604051602081830303815290604052805190602001206040518263ffffffff1660e01b815260040161010591815260200190565b602060405180830381865afa158015610122573d6000803e3d6000fd5b505050506040513d601f19601f8201168201806040525081019061014691906101b1565b905090565b600073ad67fe66660fb8dfe9d6b1b4240d8650e30f60196001600160a01b031663159354a26040516020016100d19060208082526013908201527f4674736f466565644964436f6e76657274657200000000000000000000000000604082015260600190565b6000602082840312156101c357600080fd5b81516001600160a01b03811681146101da57600080fd5b9392505050565b610b0f806101f06000396000f3fe608060405234801561001057600080fd5b506004361061007d5760003560e01c8063d790bd821161005b578063d790bd82146100df578063eb91d37e146100f2578063ecd426f4146100fa578063f8d2e7ba1461012057600080fd5b806308200a7c14610082578063d7549762146100b7578063d77a18eb146100ca575b600080fd5b61008a610135565b6040805193845260009290920b602084015267ffffffffffffffff16908201526060015b60405180910390f35b61008a6100c5366004610712565b6101cc565b6100d26102d9565b6040516100ae91906107ed565b61008a6100ed366004610868565b6103c1565b61008a610450565b6002546101079060581b81565b6040516001600160581b031990911681526020016100ae565b610128610493565b6040516100ae919061088c565b600080546002546040516349f4fc0360e11b815260589190911b6001600160581b0319166004820152829182918291829182916001600160a01b0316906393e9f806906024015b606060405180830381865afa158015610199573d6000803e3d6000fd5b505050506040513d601f19601f820116820180604052508101906101bd91906108da565b91989097509095509350505050565b60018054604051633e2dea0960e21b81526000928392839283926001600160a01b039092169163f8b7a8249161020791908990600401610930565b602060405180830381865afa158015610224573d6000803e3d6000fd5b505050506040513d601f19601f820116820180604052508101906102489190610954565b600080546040516349f4fc0360e11b81526001600160581b0319841660048201529293509091829182916001600160a01b03909116906393e9f80690602401606060405180830381865afa1580156102a4573d6000803e3d6000fd5b505050506040513d601f19601f820116820180604052508101906102c891906108da565b919a90995090975095505050505050565b606060006102e5610493565b9050805167ffffffffffffffff811115610301576103016106a2565b60405190808252806020026020018201604052801561033457816020015b606081526020019060019003908161031f5790505b50915060005b81518110156103bc5781818151811061035557610355610971565b602002602001015160405160200161037d91906001600160581b031991909116815260150190565b60405160208183030381529060405283828151811061039e5761039e610971565b602002602001018190525080806103b490610987565b91505061033a565b505090565b600080546040516349f4fc0360e11b81526001600160581b031984166004820152829182918291829182916001600160a01b0316906393e9f80690602401606060405180830381865afa15801561041c573d6000803e3d6000fd5b505050506040513d601f19601f8201168201806040525081019061044091906108da565b9199909850909650945050505050565b600080546040516349f4fc0360e11b8152665155120bd554d160c21b6004820152829182918291829182916001600160a01b0316906393e9f8069060240161017c565b6060600061049f6105c2565b90506000816001600160a01b03166331038aad6040518163ffffffff1660e01b8152600401600060405180830381865afa1580156104e1573d6000803e3d6000fd5b505050506040513d6000823e601f3d908101601f1916820160405261050991908101906109ae565b90506000815167ffffffffffffffff811115610527576105276106a2565b604051908082528060200260200182016040528015610550578160200160208202803683370190505b50905060005b82518110156105ba5782818151811061057157610571610971565b60200260200101516000015182828151811061058f5761058f610971565b6001600160581b031990921660209283029190910190910152806105b281610987565b915050610556565b509392505050565b600073ad67fe66660fb8dfe9d6b1b4240d8650e30f60196001600160a01b031663159354a26040516020016106289060208082526018908201527f4661737455706461746573436f6e66696775726174696f6e0000000000000000604082015260600190565b604051602081830303815290604052805190602001206040518263ffffffff1660e01b815260040161065c91815260200190565b602060405180830381865afa158015610679573d6000803e3d6000fd5b505050506040513d601f19601f8201168201806040525081019061069d9190610ab0565b905090565b634e487b7160e01b600052604160045260246000fd5b6040516060810167ffffffffffffffff811182821017156106db576106db6106a2565b60405290565b604051601f8201601f1916810167ffffffffffffffff8111828210171561070a5761070a6106a2565b604052919050565b6000602080838503121561072557600080fd5b823567ffffffffffffffff8082111561073d57600080fd5b818501915085601f83011261075157600080fd5b813581811115610763576107636106a2565b610775601f8201601f191685016106e1565b9150808252868482850101111561078b57600080fd5b8084840185840137600090820190930192909252509392505050565b6000815180845260005b818110156107cd576020818501810151868301820152016107b1565b506000602082860101526020601f19601f83011685010191505092915050565b6000602080830181845280855180835260408601915060408160051b870101925083870160005b8281101561084257603f198886030184526108308583516107a7565b94509285019290850190600101610814565b5092979650505050505050565b6001600160581b03198116811461086557600080fd5b50565b60006020828403121561087a57600080fd5b81356108858161084f565b9392505050565b6020808252825182820181905260009190848201906040850190845b818110156108ce5783516001600160581b031916835292840192918401916001016108a8565b50909695505050505050565b6000806000606084860312156108ef57600080fd5b8351925060208401518060000b811461090757600080fd5b604085015190925067ffffffffffffffff8116811461092557600080fd5b809150509250925092565b60ff8316815260406020820152600061094c60408301846107a7565b949350505050565b60006020828403121561096657600080fd5b81516108858161084f565b634e487b7160e01b600052603260045260246000fd5b6000600182016109a757634e487b7160e01b600052601160045260246000fd5b5060010190565b600060208083850312156109c157600080fd5b825167ffffffffffffffff808211156109d957600080fd5b818501915085601f8301126109ed57600080fd5b8151818111156109ff576109ff6106a2565b610a0d848260051b016106e1565b81815284810192506060918202840185019188831115610a2c57600080fd5b938501935b82851015610aa45780858a031215610a495760008081fd5b610a516106b8565b8551610a5c8161084f565b81528587015163ffffffff81168114610a755760008081fd5b8188015260408681015162ffffff81168114610a915760008081fd5b9082015284529384019392850192610a31565b50979650505050505050565b600060208284031215610ac257600080fd5b81516001600160a01b038116811461088557600080fdfea2646970667358221220f9de8665f0464dd10c827bb55b326fe002ec4730376cb8aeb0da76ac3df6a02c64736f6c63430008140033","opcodes":"PUSH1 0x80 PUSH1 0x40 MSTORE PUSH1 0x2 DUP1 SLOAD PUSH1 0x1 PUSH1 0x1 PUSH1 0xA8 SHL SUB NOT AND PUSH7 0x5193148BD554D1 PUSH1 0x6A SHL OR SWAP1 SSTORE CALLVALUE DUP1 ISZERO PUSH2 0x2C JUMPI PUSH1 0x0 DUP1 REVERT JUMPDEST POP PUSH2 0x35 PUSH2 0x82 JUMP JUMPDEST PUSH1 0x0 DUP1 SLOAD PUSH1 0x1 PUSH1 0x1 PUSH1 0xA0 SHL SUB NOT AND PUSH1 0x1 PUSH1 0x1 PUSH1 0xA0 SHL SUB SWAP3 SWAP1 SWAP3 AND SWAP2 SWAP1 SWAP2 OR SWAP1 SSTORE PUSH2 0x5D PUSH2 0x14B JUMP JUMPDEST PUSH1 0x1 DUP1 SLOAD PUSH1 0x1 PUSH1 0x1 PUSH1 0xA0 SHL SUB NOT AND PUSH1 0x1 PUSH1 0x1 PUSH1 0xA0 SHL SUB SWAP3 SWAP1 SWAP3 AND SWAP2 SWAP1 SWAP2 OR SWAP1 SSTORE PUSH2 0x1E1 JUMP JUMPDEST PUSH1 0x0 PUSH20 0xAD67FE66660FB8DFE9D6B1B4240D8650E30F6019 PUSH1 0x1 PUSH1 0x1 PUSH1 0xA0 SHL SUB AND PUSH4 0x159354A2 PUSH1 0x40 MLOAD PUSH1 0x20 ADD PUSH2 0xD1 SWAP1 PUSH1 0x20 DUP1 DUP3 MSTORE PUSH1 0x6 SWAP1 DUP3 ADD MSTORE PUSH6 0x233A39B7AB19 PUSH1 0xD1 SHL PUSH1 0x40 DUP3 ADD MSTORE PUSH1 0x60 ADD SWAP1 JUMP JUMPDEST PUSH1 0x40 MLOAD PUSH1 0x20 DUP2 DUP4 SUB SUB DUP2 MSTORE SWAP1 PUSH1 0x40 MSTORE DUP1 MLOAD SWAP1 PUSH1 0x20 ADD KECCAK256 PUSH1 0x40 MLOAD DUP3 PUSH4 0xFFFFFFFF AND PUSH1 0xE0 SHL DUP2 MSTORE PUSH1 0x4 ADD PUSH2 0x105 SWAP2 DUP2 MSTORE PUSH1 0x20 ADD SWAP1 JUMP JUMPDEST PUSH1 0x20 PUSH1 0x40 MLOAD DUP1 DUP4 SUB DUP2 DUP7 GAS STATICCALL ISZERO DUP1 ISZERO PUSH2 0x122 JUMPI RETURNDATASIZE PUSH1 0x0 DUP1 RETURNDATACOPY RETURNDATASIZE PUSH1 0x0 REVERT JUMPDEST POP POP POP POP PUSH1 0x40 MLOAD RETURNDATASIZE PUSH1 0x1F NOT PUSH1 0x1F DUP3 ADD AND DUP3 ADD DUP1 PUSH1 0x40 MSTORE POP DUP2 ADD SWAP1 PUSH2 0x146 SWAP2 SWAP1 PUSH2 0x1B1 JUMP JUMPDEST SWAP1 POP SWAP1 JUMP JUMPDEST PUSH1 0x0 PUSH20 0xAD67FE66660FB8DFE9D6B1B4240D8650E30F6019 PUSH1 0x1 PUSH1 0x1 PUSH1 0xA0 SHL SUB AND PUSH4 0x159354A2 PUSH1 0x40 MLOAD PUSH1 0x20 ADD PUSH2 0xD1 SWAP1 PUSH1 0x20 DUP1 DUP3 MSTORE PUSH1 0x13 SWAP1 DUP3 ADD MSTORE PUSH32 0x4674736F466565644964436F6E76657274657200000000000000000000000000 PUSH1 0x40 DUP3 ADD MSTORE PUSH1 0x60 ADD SWAP1 JUMP JUMPDEST PUSH1 0x0 PUSH1 0x20 DUP3 DUP5 SUB SLT ISZERO PUSH2 0x1C3 JUMPI PUSH1 0x0 DUP1 REVERT JUMPDEST DUP2 MLOAD PUSH1 0x1 PUSH1 0x1 PUSH1 0xA0 SHL SUB DUP2 AND DUP2 EQ PUSH2 0x1DA JUMPI PUSH1 0x0 DUP1 REVERT JUMPDEST SWAP4 SWAP3 POP POP POP JUMP JUMPDEST PUSH2 0xB0F DUP1 PUSH2 0x1F0 PUSH1 0x0 CODECOPY PUSH1 0x0 RETURN INVALID PUSH1 0x80 PUSH1 0x40 MSTORE CALLVALUE DUP1 ISZERO PUSH2 0x10 JUMPI PUSH1 0x0 DUP1 REVERT JUMPDEST POP PUSH1 0x4 CALLDATASIZE LT PUSH2 0x7D JUMPI PUSH1 0x0 CALLDATALOAD PUSH1 0xE0 SHR DUP1 PUSH4 0xD790BD82 GT PUSH2 0x5B JUMPI DUP1 PUSH4 0xD790BD82 EQ PUSH2 0xDF JUMPI DUP1 PUSH4 0xEB91D37E EQ PUSH2 0xF2 JUMPI DUP1 PUSH4 0xECD426F4 EQ PUSH2 0xFA JUMPI DUP1 PUSH4 0xF8D2E7BA EQ PUSH2 0x120 JUMPI PUSH1 0x0 DUP1 REVERT JUMPDEST DUP1 PUSH4 0x8200A7C EQ PUSH2 0x82 JUMPI DUP1 PUSH4 0xD7549762 EQ PUSH2 0xB7 JUMPI DUP1 PUSH4 0xD77A18EB EQ PUSH2 0xCA JUMPI JUMPDEST PUSH1 0x0 DUP1 REVERT JUMPDEST PUSH2 0x8A PUSH2 0x135 JUMP JUMPDEST PUSH1 0x40 DUP1 MLOAD SWAP4 DUP5 MSTORE PUSH1 0x0 SWAP3 SWAP1 SWAP3 SIGNEXTEND PUSH1 0x20 DUP5 ADD MSTORE PUSH8 0xFFFFFFFFFFFFFFFF AND SWAP1 DUP3 ADD MSTORE PUSH1 0x60 ADD JUMPDEST PUSH1 0x40 MLOAD DUP1 SWAP2 SUB SWAP1 RETURN JUMPDEST PUSH2 0x8A PUSH2 0xC5 CALLDATASIZE PUSH1 0x4 PUSH2 0x712 JUMP JUMPDEST PUSH2 0x1CC JUMP JUMPDEST PUSH2 0xD2 PUSH2 0x2D9 JUMP JUMPDEST PUSH1 0x40 MLOAD PUSH2 0xAE SWAP2 SWAP1 PUSH2 0x7ED JUMP JUMPDEST PUSH2 0x8A PUSH2 0xED CALLDATASIZE PUSH1 0x4 PUSH2 0x868 JUMP JUMPDEST PUSH2 0x3C1 JUMP JUMPDEST PUSH2 0x8A PUSH2 0x450 JUMP JUMPDEST PUSH1 0x2 SLOAD PUSH2 0x107 SWAP1 PUSH1 0x58 SHL DUP2 JUMP JUMPDEST PUSH1 0x40 MLOAD PUSH1 0x1 PUSH1 0x1 PUSH1 0x58 SHL SUB NOT SWAP1 SWAP2 AND DUP2 MSTORE PUSH1 0x20 ADD PUSH2 0xAE JUMP JUMPDEST PUSH2 0x128 PUSH2 0x493 JUMP JUMPDEST PUSH1 0x40 MLOAD PUSH2 0xAE SWAP2 SWAP1 PUSH2 0x88C JUMP JUMPDEST PUSH1 0x0 DUP1 SLOAD PUSH1 0x2 SLOAD PUSH1 0x40 MLOAD PUSH4 0x49F4FC03 PUSH1 0xE1 SHL DUP2 MSTORE PUSH1 0x58 SWAP2 SWAP1 SWAP2 SHL PUSH1 0x1 PUSH1 0x1 PUSH1 0x58 SHL SUB NOT AND PUSH1 0x4 DUP3 ADD MSTORE DUP3 SWAP2 DUP3 SWAP2 DUP3 SWAP2 DUP3 SWAP2 DUP3 SWAP2 PUSH1 0x1 PUSH1 0x1 PUSH1 0xA0 SHL SUB AND SWAP1 PUSH4 0x93E9F806 SWAP1 PUSH1 0x24 ADD JUMPDEST PUSH1 0x60 PUSH1 0x40 MLOAD DUP1 DUP4 SUB DUP2 DUP7 GAS STATICCALL ISZERO DUP1 ISZERO PUSH2 0x199 JUMPI RETURNDATASIZE PUSH1 0x0 DUP1 RETURNDATACOPY RETURNDATASIZE PUSH1 0x0 REVERT JUMPDEST POP POP POP POP PUSH1 0x40 MLOAD RETURNDATASIZE PUSH1 0x1F NOT PUSH1 0x1F DUP3 ADD AND DUP3 ADD DUP1 PUSH1 0x40 MSTORE POP DUP2 ADD SWAP1 PUSH2 0x1BD SWAP2 SWAP1 PUSH2 0x8DA JUMP JUMPDEST SWAP2 SWAP9 SWAP1 SWAP8 POP SWAP1 SWAP6 POP SWAP4 POP POP POP POP JUMP JUMPDEST PUSH1 0x1 DUP1 SLOAD PUSH1 0x40 MLOAD PUSH4 0x3E2DEA09 PUSH1 0xE2 SHL DUP2 MSTORE PUSH1 0x0 SWAP3 DUP4 SWAP3 DUP4 SWAP3 DUP4 SWAP3 PUSH1 0x1 PUSH1 0x1 PUSH1 0xA0 SHL SUB SWAP1 SWAP3 AND SWAP2 PUSH4 0xF8B7A824 SWAP2 PUSH2 0x207 SWAP2 SWAP1 DUP10 SWAP1 PUSH1 0x4 ADD PUSH2 0x930 JUMP JUMPDEST PUSH1 0x20 PUSH1 0x40 MLOAD DUP1 DUP4 SUB DUP2 DUP7 GAS STATICCALL ISZERO DUP1 ISZERO PUSH2 0x224 JUMPI RETURNDATASIZE PUSH1 0x0 DUP1 RETURNDATACOPY RETURNDATASIZE PUSH1 0x0 REVERT JUMPDEST POP POP POP POP PUSH1 0x40 MLOAD RETURNDATASIZE PUSH1 0x1F NOT PUSH1 0x1F DUP3 ADD AND DUP3 ADD DUP1 PUSH1 0x40 MSTORE POP DUP2 ADD SWAP1 PUSH2 0x248 SWAP2 SWAP1 PUSH2 0x954 JUMP JUMPDEST PUSH1 0x0 DUP1 SLOAD PUSH1 0x40 MLOAD PUSH4 0x49F4FC03 PUSH1 0xE1 SHL DUP2 MSTORE PUSH1 0x1 PUSH1 0x1 PUSH1 0x58 SHL SUB NOT DUP5 AND PUSH1 0x4 DUP3 ADD MSTORE SWAP3 SWAP4 POP SWAP1 SWAP2 DUP3 SWAP2 DUP3 SWAP2 PUSH1 0x1 PUSH1 0x1 PUSH1 0xA0 SHL SUB SWAP1 SWAP2 AND SWAP1 PUSH4 0x93E9F806 SWAP1 PUSH1 0x24 ADD PUSH1 0x60 PUSH1 0x40 MLOAD DUP1 DUP4 SUB DUP2 DUP7 GAS STATICCALL ISZERO DUP1 ISZERO PUSH2 0x2A4 JUMPI RETURNDATASIZE PUSH1 0x0 DUP1 RETURNDATACOPY RETURNDATASIZE PUSH1 0x0 REVERT JUMPDEST POP POP POP POP PUSH1 0x40 MLOAD RETURNDATASIZE PUSH1 0x1F NOT PUSH1 0x1F DUP3 ADD AND DUP3 ADD DUP1 PUSH1 0x40 MSTORE POP DUP2 ADD SWAP1 PUSH2 0x2C8 SWAP2 SWAP1 PUSH2 0x8DA JUMP JUMPDEST SWAP2 SWAP11 SWAP1 SWAP10 POP SWAP1 SWAP8 POP SWAP6 POP POP POP POP POP POP JUMP JUMPDEST PUSH1 0x60 PUSH1 0x0 PUSH2 0x2E5 PUSH2 0x493 JUMP JUMPDEST SWAP1 POP DUP1 MLOAD PUSH8 0xFFFFFFFFFFFFFFFF DUP2 GT ISZERO PUSH2 0x301 JUMPI PUSH2 0x301 PUSH2 0x6A2 JUMP JUMPDEST PUSH1 0x40 MLOAD SWAP1 DUP1 DUP3 MSTORE DUP1 PUSH1 0x20 MUL PUSH1 0x20 ADD DUP3 ADD PUSH1 0x40 MSTORE DUP1 ISZERO PUSH2 0x334 JUMPI DUP2 PUSH1 0x20 ADD JUMPDEST PUSH1 0x60 DUP2 MSTORE PUSH1 0x20 ADD SWAP1 PUSH1 0x1 SWAP1 SUB SWAP1 DUP2 PUSH2 0x31F JUMPI SWAP1 POP JUMPDEST POP SWAP2 POP PUSH1 0x0 JUMPDEST DUP2 MLOAD DUP2 LT ISZERO PUSH2 0x3BC JUMPI DUP2 DUP2 DUP2 MLOAD DUP2 LT PUSH2 0x355 JUMPI PUSH2 0x355 PUSH2 0x971 JUMP JUMPDEST PUSH1 0x20 MUL PUSH1 0x20 ADD ADD MLOAD PUSH1 0x40 MLOAD PUSH1 0x20 ADD PUSH2 0x37D SWAP2 SWAP1 PUSH1 0x1 PUSH1 0x1 PUSH1 0x58 SHL SUB NOT SWAP2 SWAP1 SWAP2 AND DUP2 MSTORE PUSH1 0x15 ADD SWAP1 JUMP JUMPDEST PUSH1 0x40 MLOAD PUSH1 0x20 DUP2 DUP4 SUB SUB DUP2 MSTORE SWAP1 PUSH1 0x40 MSTORE DUP4 DUP3 DUP2 MLOAD DUP2 LT PUSH2 0x39E JUMPI PUSH2 0x39E PUSH2 0x971 JUMP JUMPDEST PUSH1 0x20 MUL PUSH1 0x20 ADD ADD DUP2 SWAP1 MSTORE POP DUP1 DUP1 PUSH2 0x3B4 SWAP1 PUSH2 0x987 JUMP JUMPDEST SWAP2 POP POP PUSH2 0x33A JUMP JUMPDEST POP POP SWAP1 JUMP JUMPDEST PUSH1 0x0 DUP1 SLOAD PUSH1 0x40 MLOAD PUSH4 0x49F4FC03 PUSH1 0xE1 SHL DUP2 MSTORE PUSH1 0x1 PUSH1 0x1 PUSH1 0x58 SHL SUB NOT DUP5 AND PUSH1 0x4 DUP3 ADD MSTORE DUP3 SWAP2 DUP3 SWAP2 DUP3 SWAP2 DUP3 SWAP2 DUP3 SWAP2 PUSH1 0x1 PUSH1 0x1 PUSH1 0xA0 SHL SUB AND SWAP1 PUSH4 0x93E9F806 SWAP1 PUSH1 0x24 ADD PUSH1 0x60 PUSH1 0x40 MLOAD DUP1 DUP4 SUB DUP2 DUP7 GAS STATICCALL ISZERO DUP1 ISZERO PUSH2 0x41C JUMPI RETURNDATASIZE PUSH1 0x0 DUP1 RETURNDATACOPY RETURNDATASIZE PUSH1 0x0 REVERT JUMPDEST POP POP POP POP PUSH1 0x40 MLOAD RETURNDATASIZE PUSH1 0x1F NOT PUSH1 0x1F DUP3 ADD AND DUP3 ADD DUP1 PUSH1 0x40 MSTORE POP DUP2 ADD SWAP1 PUSH2 0x440 SWAP2 SWAP1 PUSH2 0x8DA JUMP JUMPDEST SWAP2 SWAP10 SWAP1 SWAP9 POP SWAP1 SWAP7 POP SWAP5 POP POP POP POP POP JUMP JUMPDEST PUSH1 0x0 DUP1 SLOAD PUSH1 0x40 MLOAD PUSH4 0x49F4FC03 PUSH1 0xE1 SHL DUP2 MSTORE PUSH7 0x5155120BD554D1 PUSH1 0xC2 SHL PUSH1 0x4 DUP3 ADD MSTORE DUP3 SWAP2 DUP3 SWAP2 DUP3 SWAP2 DUP3 SWAP2 DUP3 SWAP2 PUSH1 0x1 PUSH1 0x1 PUSH1 0xA0 SHL SUB AND SWAP1 PUSH4 0x93E9F806 SWAP1 PUSH1 0x24 ADD PUSH2 0x17C JUMP JUMPDEST PUSH1 0x60 PUSH1 0x0 PUSH2 0x49F PUSH2 0x5C2 JUMP JUMPDEST SWAP1 POP PUSH1 0x0 DUP2 PUSH1 0x1 PUSH1 0x1 PUSH1 0xA0 SHL SUB AND PUSH4 0x31038AAD PUSH1 0x40 MLOAD DUP2 PUSH4 0xFFFFFFFF AND PUSH1 0xE0 SHL DUP2 MSTORE PUSH1 0x4 ADD PUSH1 0x0 PUSH1 0x40 MLOAD DUP1 DUP4 SUB DUP2 DUP7 GAS STATICCALL ISZERO DUP1 ISZERO PUSH2 0x4E1 JUMPI RETURNDATASIZE PUSH1 0x0 DUP1 RETURNDATACOPY RETURNDATASIZE PUSH1 0x0 REVERT JUMPDEST POP POP POP POP PUSH1 0x40 MLOAD RETURNDATASIZE PUSH1 0x0 DUP3 RETURNDATACOPY PUSH1 0x1F RETURNDATASIZE SWAP1 DUP2 ADD PUSH1 0x1F NOT AND DUP3 ADD PUSH1 0x40 MSTORE PUSH2 0x509 SWAP2 SWAP1 DUP2 ADD SWAP1 PUSH2 0x9AE JUMP JUMPDEST SWAP1 POP PUSH1 0x0 DUP2 MLOAD PUSH8 0xFFFFFFFFFFFFFFFF DUP2 GT ISZERO PUSH2 0x527 JUMPI PUSH2 0x527 PUSH2 0x6A2 JUMP JUMPDEST PUSH1 0x40 MLOAD SWAP1 DUP1 DUP3 MSTORE DUP1 PUSH1 0x20 MUL PUSH1 0x20 ADD DUP3 ADD PUSH1 0x40 MSTORE DUP1 ISZERO PUSH2 0x550 JUMPI DUP2 PUSH1 0x20 ADD PUSH1 0x20 DUP3 MUL DUP1 CALLDATASIZE DUP4 CALLDATACOPY ADD SWAP1 POP JUMPDEST POP SWAP1 POP PUSH1 0x0 JUMPDEST DUP3 MLOAD DUP2 LT ISZERO PUSH2 0x5BA JUMPI DUP3 DUP2 DUP2 MLOAD DUP2 LT PUSH2 0x571 JUMPI PUSH2 0x571 PUSH2 0x971 JUMP JUMPDEST PUSH1 0x20 MUL PUSH1 0x20 ADD ADD MLOAD PUSH1 0x0 ADD MLOAD DUP3 DUP3 DUP2 MLOAD DUP2 LT PUSH2 0x58F JUMPI PUSH2 0x58F PUSH2 0x971 JUMP JUMPDEST PUSH1 0x1 PUSH1 0x1 PUSH1 0x58 SHL SUB NOT SWAP1 SWAP3 AND PUSH1 0x20 SWAP3 DUP4 MUL SWAP2 SWAP1 SWAP2 ADD SWAP1 SWAP2 ADD MSTORE DUP1 PUSH2 0x5B2 DUP2 PUSH2 0x987 JUMP JUMPDEST SWAP2 POP POP PUSH2 0x556 JUMP JUMPDEST POP SWAP4 SWAP3 POP POP POP JUMP JUMPDEST PUSH1 0x0 PUSH20 0xAD67FE66660FB8DFE9D6B1B4240D8650E30F6019 PUSH1 0x1 PUSH1 0x1 PUSH1 0xA0 SHL SUB AND PUSH4 0x159354A2 PUSH1 0x40 MLOAD PUSH1 0x20 ADD PUSH2 0x628 SWAP1 PUSH1 0x20 DUP1 DUP3 MSTORE PUSH1 0x18 SWAP1 DUP3 ADD MSTORE PUSH32 0x4661737455706461746573436F6E66696775726174696F6E0000000000000000 PUSH1 0x40 DUP3 ADD MSTORE PUSH1 0x60 ADD SWAP1 JUMP JUMPDEST PUSH1 0x40 MLOAD PUSH1 0x20 DUP2 DUP4 SUB SUB DUP2 MSTORE SWAP1 PUSH1 0x40 MSTORE DUP1 MLOAD SWAP1 PUSH1 0x20 ADD KECCAK256 PUSH1 0x40 MLOAD DUP3 PUSH4 0xFFFFFFFF AND PUSH1 0xE0 SHL DUP2 MSTORE PUSH1 0x4 ADD PUSH2 0x65C SWAP2 DUP2 MSTORE PUSH1 0x20 ADD SWAP1 JUMP JUMPDEST PUSH1 0x20 PUSH1 0x40 MLOAD DUP1 DUP4 SUB DUP2 DUP7 GAS STATICCALL ISZERO DUP1 ISZERO PUSH2 0x679 JUMPI RETURNDATASIZE PUSH1 0x0 DUP1 RETURNDATACOPY RETURNDATASIZE PUSH1 0x0 REVERT JUMPDEST POP POP POP POP PUSH1 0x40 MLOAD RETURNDATASIZE PUSH1 0x1F NOT PUSH1 0x1F DUP3 ADD AND DUP3 ADD DUP1 PUSH1 0x40 MSTORE POP DUP2 ADD SWAP1 PUSH2 0x69D SWAP2 SWAP1 PUSH2 0xAB0 JUMP JUMPDEST SWAP1 POP SWAP1 JUMP JUMPDEST PUSH4 0x4E487B71 PUSH1 0xE0 SHL PUSH1 0x0 MSTORE PUSH1 0x41 PUSH1 0x4 MSTORE PUSH1 0x24 PUSH1 0x0 REVERT JUMPDEST PUSH1 0x40 MLOAD PUSH1 0x60 DUP2 ADD PUSH8 0xFFFFFFFFFFFFFFFF DUP2 GT DUP3 DUP3 LT OR ISZERO PUSH2 0x6DB JUMPI PUSH2 0x6DB PUSH2 0x6A2 JUMP JUMPDEST PUSH1 0x40 MSTORE SWAP1 JUMP JUMPDEST PUSH1 0x40 MLOAD PUSH1 0x1F DUP3 ADD PUSH1 0x1F NOT AND DUP2 ADD PUSH8 0xFFFFFFFFFFFFFFFF DUP2 GT DUP3 DUP3 LT OR ISZERO PUSH2 0x70A JUMPI PUSH2 0x70A PUSH2 0x6A2 JUMP JUMPDEST PUSH1 0x40 MSTORE SWAP2 SWAP1 POP JUMP JUMPDEST PUSH1 0x0 PUSH1 0x20 DUP1 DUP4 DUP6 SUB SLT ISZERO PUSH2 0x725 JUMPI PUSH1 0x0 DUP1 REVERT JUMPDEST DUP3 CALLDATALOAD PUSH8 0xFFFFFFFFFFFFFFFF DUP1 DUP3 GT ISZERO PUSH2 0x73D JUMPI PUSH1 0x0 DUP1 REVERT JUMPDEST DUP2 DUP6 ADD SWAP2 POP DUP6 PUSH1 0x1F DUP4 ADD SLT PUSH2 0x751 JUMPI PUSH1 0x0 DUP1 REVERT JUMPDEST DUP2 CALLDATALOAD DUP2 DUP2 GT ISZERO PUSH2 0x763 JUMPI PUSH2 0x763 PUSH2 0x6A2 JUMP JUMPDEST PUSH2 0x775 PUSH1 0x1F DUP3 ADD PUSH1 0x1F NOT AND DUP6 ADD PUSH2 0x6E1 JUMP JUMPDEST SWAP2 POP DUP1 DUP3 MSTORE DUP7 DUP5 DUP3 DUP6 ADD ADD GT ISZERO PUSH2 0x78B JUMPI PUSH1 0x0 DUP1 REVERT JUMPDEST DUP1 DUP5 DUP5 ADD DUP6 DUP5 ADD CALLDATACOPY PUSH1 0x0 SWAP1 DUP3 ADD SWAP1 SWAP4 ADD SWAP3 SWAP1 SWAP3 MSTORE POP SWAP4 SWAP3 POP POP POP JUMP JUMPDEST PUSH1 0x0 DUP2 MLOAD DUP1 DUP5 MSTORE PUSH1 0x0 JUMPDEST DUP2 DUP2 LT ISZERO PUSH2 0x7CD JUMPI PUSH1 0x20 DUP2 DUP6 ADD DUP2 ADD MLOAD DUP7 DUP4 ADD DUP3 ADD MSTORE ADD PUSH2 0x7B1 JUMP JUMPDEST POP PUSH1 0x0 PUSH1 0x20 DUP3 DUP7 ADD ADD MSTORE PUSH1 0x20 PUSH1 0x1F NOT PUSH1 0x1F DUP4 ADD AND DUP6 ADD ADD SWAP2 POP POP SWAP3 SWAP2 POP POP JUMP JUMPDEST PUSH1 0x0 PUSH1 0x20 DUP1 DUP4 ADD DUP2 DUP5 MSTORE DUP1 DUP6 MLOAD DUP1 DUP4 MSTORE PUSH1 0x40 DUP7 ADD SWAP2 POP PUSH1 0x40 DUP2 PUSH1 0x5 SHL DUP8 ADD ADD SWAP3 POP DUP4 DUP8 ADD PUSH1 0x0 JUMPDEST DUP3 DUP2 LT ISZERO PUSH2 0x842 JUMPI PUSH1 0x3F NOT DUP9 DUP7 SUB ADD DUP5 MSTORE PUSH2 0x830 DUP6 DUP4 MLOAD PUSH2 0x7A7 JUMP JUMPDEST SWAP5 POP SWAP3 DUP6 ADD SWAP3 SWAP1 DUP6 ADD SWAP1 PUSH1 0x1 ADD PUSH2 0x814 JUMP JUMPDEST POP SWAP3 SWAP8 SWAP7 POP POP POP POP POP POP POP JUMP JUMPDEST PUSH1 0x1 PUSH1 0x1 PUSH1 0x58 SHL SUB NOT DUP2 AND DUP2 EQ PUSH2 0x865 JUMPI PUSH1 0x0 DUP1 REVERT JUMPDEST POP JUMP JUMPDEST PUSH1 0x0 PUSH1 0x20 DUP3 DUP5 SUB SLT ISZERO PUSH2 0x87A JUMPI PUSH1 0x0 DUP1 REVERT JUMPDEST DUP2 CALLDATALOAD PUSH2 0x885 DUP2 PUSH2 0x84F JUMP JUMPDEST SWAP4 SWAP3 POP POP POP JUMP JUMPDEST PUSH1 0x20 DUP1 DUP3 MSTORE DUP3 MLOAD DUP3 DUP3 ADD DUP2 SWAP1 MSTORE PUSH1 0x0 SWAP2 SWAP1 DUP5 DUP3 ADD SWAP1 PUSH1 0x40 DUP6 ADD SWAP1 DUP5 JUMPDEST DUP2 DUP2 LT ISZERO PUSH2 0x8CE JUMPI DUP4 MLOAD PUSH1 0x1 PUSH1 0x1 PUSH1 0x58 SHL SUB NOT AND DUP4 MSTORE SWAP3 DUP5 ADD SWAP3 SWAP2 DUP5 ADD SWAP2 PUSH1 0x1 ADD PUSH2 0x8A8 JUMP JUMPDEST POP SWAP1 SWAP7 SWAP6 POP POP POP POP POP POP JUMP JUMPDEST PUSH1 0x0 DUP1 PUSH1 0x0 PUSH1 0x60 DUP5 DUP7 SUB SLT ISZERO PUSH2 0x8EF JUMPI PUSH1 0x0 DUP1 REVERT JUMPDEST DUP4 MLOAD SWAP3 POP PUSH1 0x20 DUP5 ADD MLOAD DUP1 PUSH1 0x0 SIGNEXTEND DUP2 EQ PUSH2 0x907 JUMPI PUSH1 0x0 DUP1 REVERT JUMPDEST PUSH1 0x40 DUP6 ADD MLOAD SWAP1 SWAP3 POP PUSH8 0xFFFFFFFFFFFFFFFF DUP2 AND DUP2 EQ PUSH2 0x925 JUMPI PUSH1 0x0 DUP1 REVERT JUMPDEST DUP1 SWAP2 POP POP SWAP3 POP SWAP3 POP SWAP3 JUMP JUMPDEST PUSH1 0xFF DUP4 AND DUP2 MSTORE PUSH1 0x40 PUSH1 0x20 DUP3 ADD MSTORE PUSH1 0x0 PUSH2 0x94C PUSH1 0x40 DUP4 ADD DUP5 PUSH2 0x7A7 JUMP JUMPDEST SWAP5 SWAP4 POP POP POP POP JUMP JUMPDEST PUSH1 0x0 PUSH1 0x20 DUP3 DUP5 SUB SLT ISZERO PUSH2 0x966 JUMPI PUSH1 0x0 DUP1 REVERT JUMPDEST DUP2 MLOAD PUSH2 0x885 DUP2 PUSH2 0x84F JUMP JUMPDEST PUSH4 0x4E487B71 PUSH1 0xE0 SHL PUSH1 0x0 MSTORE PUSH1 0x32 PUSH1 0x4 MSTORE PUSH1 0x24 PUSH1 0x0 REVERT JUMPDEST PUSH1 0x0 PUSH1 0x1 DUP3 ADD PUSH2 0x9A7 JUMPI PUSH4 0x4E487B71 PUSH1 0xE0 SHL PUSH1 0x0 MSTORE PUSH1 0x11 PUSH1 0x4 MSTORE PUSH1 0x24 PUSH1 0x0 REVERT JUMPDEST POP PUSH1 0x1 ADD SWAP1 JUMP JUMPDEST PUSH1 0x0 PUSH1 0x20 DUP1 DUP4 DUP6 SUB SLT ISZERO PUSH2 0x9C1 JUMPI PUSH1 0x0 DUP1 REVERT JUMPDEST DUP3 MLOAD PUSH8 0xFFFFFFFFFFFFFFFF DUP1 DUP3 GT ISZERO PUSH2 0x9D9 JUMPI PUSH1 0x0 DUP1 REVERT JUMPDEST DUP2 DUP6 ADD SWAP2 POP DUP6 PUSH1 0x1F DUP4 ADD SLT PUSH2 0x9ED JUMPI PUSH1 0x0 DUP1 REVERT JUMPDEST DUP2 MLOAD DUP2 DUP2 GT ISZERO PUSH2 0x9FF JUMPI PUSH2 0x9FF PUSH2 0x6A2 JUMP JUMPDEST PUSH2 0xA0D DUP5 DUP3 PUSH1 0x5 SHL ADD PUSH2 0x6E1 JUMP JUMPDEST DUP2 DUP2 MSTORE DUP5 DUP2 ADD SWAP3 POP PUSH1 0x60 SWAP2 DUP3 MUL DUP5 ADD DUP6 ADD SWAP2 DUP9 DUP4 GT ISZERO PUSH2 0xA2C JUMPI PUSH1 0x0 DUP1 REVERT JUMPDEST SWAP4 DUP6 ADD SWAP4 JUMPDEST DUP3 DUP6 LT ISZERO PUSH2 0xAA4 JUMPI DUP1 DUP6 DUP11 SUB SLT ISZERO PUSH2 0xA49 JUMPI PUSH1 0x0 DUP1 DUP2 REVERT JUMPDEST PUSH2 0xA51 PUSH2 0x6B8 JUMP JUMPDEST DUP6 MLOAD PUSH2 0xA5C DUP2 PUSH2 0x84F JUMP JUMPDEST DUP2 MSTORE DUP6 DUP8 ADD MLOAD PUSH4 0xFFFFFFFF DUP2 AND DUP2 EQ PUSH2 0xA75 JUMPI PUSH1 0x0 DUP1 DUP2 REVERT JUMPDEST DUP2 DUP9 ADD MSTORE PUSH1 0x40 DUP7 DUP2 ADD MLOAD PUSH3 0xFFFFFF DUP2 AND DUP2 EQ PUSH2 0xA91 JUMPI PUSH1 0x0 DUP1 DUP2 REVERT JUMPDEST SWAP1 DUP3 ADD MSTORE DUP5 MSTORE SWAP4 DUP5 ADD SWAP4 SWAP3 DUP6 ADD SWAP3 PUSH2 0xA31 JUMP JUMPDEST POP SWAP8 SWAP7 POP POP POP POP POP POP POP JUMP JUMPDEST PUSH1 0x0 PUSH1 0x20 DUP3 DUP5 SUB SLT ISZERO PUSH2 0xAC2 JUMPI PUSH1 0x0 DUP1 REVERT JUMPDEST DUP2 MLOAD PUSH1 0x1 PUSH1 0x1 PUSH1 0xA0 SHL SUB DUP2 AND DUP2 EQ PUSH2 0x885 JUMPI PUSH1 0x0 DUP1 REVERT INVALID LOG2 PUSH5 0x6970667358 0x22 SLT KECCAK256 0xF9 0xDE DUP7 PUSH6 0xF0464DD10C82 PUSH28 0xB55B326FE002EC4730376CB8AEB0DA76AC3DF6A02C64736F6C634300 ADDMOD EQ STOP CALLER "},"methodIdentifiers":{"flrUsdId()":"ecd426f4","getAvailablePriceFeedNames()":"d77a18eb","getAvailablePriceFeeds()":"f8d2e7ba","getCurrentPrice()":"eb91d37e","getFeedPrice(bytes21)":"d790bd82","getFeedPriceByName(string)":"d7549762","getFlrUsdPrice()":"08200a7c"}}}}}