{"contracts/MockInsuranceOracle.sol":{"MockInsuranceOracle":{"abi":[{"inputs":[{"internalType":"uint256","name":"","type":"uint256"}],"name":"verifyInsurance","outputs":[{"internalType":"bool","name":"","type":"bool"}],"stateMutability":"pure","type":"function"}],"evm":{"bytecode":{"linkReferences":{},"object":"6080604052348015600f57600080fd5b5060a08061001e6000396000f3fe6080604052348015600f57600080fd5b506004361060285760003560e01c8063137936fd14602d575b600080fd5b603e60383660046052565b50600190565b604051901515815260200160405180910390f35b600060208284031215606357600080fd5b503591905056fea264697066735822122010cc236c3e52ab682f0e00b73c6654d30126a45292de91780e91e6fe77ae19bf64736f6c63430008140033","opcodes":"PUSH1 0x80 PUSH1 0x40 MSTORE CALLVALUE DUP1 ISZERO PUSH1 0xF JUMPI PUSH1 0x0 DUP1 REVERT JUMPDEST POP PUSH1 0xA0 DUP1 PUSH2 0x1E PUSH1 0x0 CODECOPY PUSH1 0x0 RETURN INVALID PUSH1 0x80 PUSH1 0x40 MSTORE CALLVALUE DUP1 ISZERO PUSH1 0xF JUMPI PUSH1 0x0 DUP1 REVERT JUMPDEST POP PUSH1 0x4 CALLDATASIZE LT PUSH1 0x28 JUMPI PUSH1 0x0 CALLDATALOAD PUSH1 0xE0 SHR DUP1 PUSH4 0x137936FD EQ PUSH1 0x2D JUMPI JUMPDEST PUSH1 0x0 DUP1 REVERT JUMPDEST PUSH1 0x3E PUSH1 0x38 CALLDATASIZE PUSH1 0x4 PUSH1 0x52 JUMP JUMPDEST POP PUSH1 0x1 SWAP1 JUMP JUMPDEST PUSH1 0x40 MLOAD SWAP1 ISZERO ISZERO DUP2 MSTORE PUSH1 0x20 ADD PUSH1 0x40 MLOAD DUP1 SWAP2 SUB SWAP1 RETURN JUMPDEST PUSH1 0x0 PUSH1 0x20 DUP3 DUP5 SUB SLT ISZERO PUSH1 0x63 JUMPI PUSH1 0x0 DUP1 REVERT JUMPDEST POP CALLDATALOAD SWAP2 SWAP1 POP JUMP INVALID LOG2 PUSH5 0x6970667358 0x22 SLT KECCAK256 LT 0xCC 0x23 PUSH13 0x3E52AB682F0E00B73C6654D301 0x26 LOG4 MSTORE SWAP3 0xDE SWAP2 PUSH25 0xE91E6FE77AE19BF64736F6C63430008140033000000000000 "},"methodIdentifiers":{"verifyInsurance(uint256)":"137936fd"}}}}}