{
  "_format": "hh-sol-artifact-1",
  "contractName": "FtsoV2FeedConsumer",
  "sourceName": "contracts/FtsoV2FeedConsumer.sol",
  "abi": [
    {
      "inputs": [
        {
          "internalType": "address",
          "name": "_ftsoAddress",
          "type": "address"
        }
      ],
      "stateMutability": "nonpayable",
      "type": "constructor"
    },
    {
      "inputs": [],
      "name": "getCurrentPrice",
      "outputs": [
        {
          "internalType": "uint256",
          "name": "",
          "type": "uint256"
        }
      ],
      "stateMutability": "view",
      "type": "function"
    }
  ],
  "bytecode": "0x608060405234801561001057600080fd5b506040516102c43803806102c4833981810160405281019061003291906100db565b806000806101000a81548173ffffffffffffffffffffffffffffffffffffffff021916908373ffffffffffffffffffffffffffffffffffffffff16021790555050610108565b600080fd5b600073ffffffffffffffffffffffffffffffffffffffff82169050919050565b60006100a88261007d565b9050919050565b6100b88161009d565b81146100c357600080fd5b50565b6000815190506100d5816100af565b92915050565b6000602082840312156100f1576100f0610078565b5b60006100ff848285016100c6565b91505092915050565b6101ad806101176000396000f3fe608060405234801561001057600080fd5b506004361061002b5760003560e01c8063eb91d37e14610030575b600080fd5b61003861004e565b60405161004591906100fe565b60405180910390f35b60008060009054906101000a900473ffffffffffffffffffffffffffffffffffffffff1673ffffffffffffffffffffffffffffffffffffffff1663eb91d37e6040518163ffffffff1660e01b8152600401602060405180830381865afa1580156100bc573d6000803e3d6000fd5b505050506040513d601f19601f820116820180604052508101906100e0919061014a565b905090565b6000819050919050565b6100f8816100e5565b82525050565b600060208201905061011360008301846100ef565b92915050565b600080fd5b610127816100e5565b811461013257600080fd5b50565b6000815190506101448161011e565b92915050565b6000602082840312156101605761015f610119565b5b600061016e84828501610135565b9150509291505056fea2646970667358221220a9a437de6892e2714860b9a53da1c53851a3d0e74c0e8499ad076aba6c65548764736f6c63430008140033",
  "linkReferences": {},
  "deployedLinkReferences": {}
}