{
  "_format": "hh-sol-artifact-1",
  "contractName": "GAEHEscrow",
  "sourceName": "contracts/GAEHEscrow.sol",
  "abi": [
    {
      "inputs": [
        {
          "internalType": "address",
          "name": "_stablecoin",
          "type": "address"
        },
        {
          "internalType": "address",
          "name": "_insuranceOracle",
          "type": "address"
        }
      ],
      "stateMutability": "nonpayable",
      "type": "constructor"
    },
    {
      "inputs": [
        {
          "internalType": "address",
          "name": "owner",
          "type": "address"
        }
      ],
      "name": "OwnableInvalidOwner",
      "type": "error"
    },
    {
      "inputs": [
        {
          "internalType": "address",
          "name": "account",
          "type": "address"
        }
      ],
      "name": "OwnableUnauthorizedAccount",
      "type": "error"
    },
    {
      "anonymous": false,
      "inputs": [
        {
          "indexed": true,
          "internalType": "uint256",
          "name": "escrowId",
          "type": "uint256"
        }
      ],
      "name": "EscrowCancelled",
      "type": "event"
    },
    {
      "anonymous": false,
      "inputs": [
        {
          "indexed": true,
          "internalType": "uint256",
          "name": "escrowId",
          "type": "uint256"
        },
        {
          "indexed": true,
          "internalType": "address",
          "name": "buyer",
          "type": "address"
        },
        {
          "indexed": true,
          "internalType": "address",
          "name": "seller",
          "type": "address"
        },
        {
          "indexed": false,
          "internalType": "uint256",
          "name": "amount",
          "type": "uint256"
        }
      ],
      "name": "EscrowCreated",
      "type": "event"
    },
    {
      "anonymous": false,
      "inputs": [
        {
          "indexed": true,
          "internalType": "uint256",
          "name": "escrowId",
          "type": "uint256"
        },
        {
          "indexed": false,
          "internalType": "uint256",
          "name": "finalAmountPaid",
          "type": "uint256"
        }
      ],
      "name": "EscrowFinalized",
      "type": "event"
    },
    {
      "anonymous": false,
      "inputs": [
        {
          "indexed": true,
          "internalType": "uint256",
          "name": "escrowId",
          "type": "uint256"
        },
        {
          "indexed": false,
          "internalType": "bool",
          "name": "verified",
          "type": "bool"
        }
      ],
      "name": "InsuranceVerified",
      "type": "event"
    },
    {
      "anonymous": false,
      "inputs": [
        {
          "indexed": true,
          "internalType": "address",
          "name": "previousOwner",
          "type": "address"
        },
        {
          "indexed": true,
          "internalType": "address",
          "name": "newOwner",
          "type": "address"
        }
      ],
      "name": "OwnershipTransferred",
      "type": "event"
    },
    {
      "anonymous": false,
      "inputs": [
        {
          "indexed": true,
          "internalType": "uint256",
          "name": "escrowId",
          "type": "uint256"
        }
      ],
      "name": "PriceAdjusted",
      "type": "event"
    },
    {
      "inputs": [
        {
          "internalType": "uint256",
          "name": "escrowId",
          "type": "uint256"
        }
      ],
      "name": "adjustPrice",
      "outputs": [],
      "stateMutability": "nonpayable",
      "type": "function"
    },
    {
      "inputs": [
        {
          "internalType": "uint256",
          "name": "escrowId",
          "type": "uint256"
        }
      ],
      "name": "cancelEscrow",
      "outputs": [],
      "stateMutability": "nonpayable",
      "type": "function"
    },
    {
      "inputs": [
        {
          "internalType": "address",
          "name": "seller",
          "type": "address"
        },
        {
          "internalType": "uint256",
          "name": "amount",
          "type": "uint256"
        }
      ],
      "name": "createEscrow",
      "outputs": [
        {
          "internalType": "uint256",
          "name": "",
          "type": "uint256"
        }
      ],
      "stateMutability": "nonpayable",
      "type": "function"
    },
    {
      "inputs": [],
      "name": "escrowCounter",
      "outputs": [
        {
          "internalType": "uint256",
          "name": "",
          "type": "uint256"
        }
      ],
      "stateMutability": "view",
      "type": "function"
    },
    {
      "inputs": [
        {
          "internalType": "uint256",
          "name": "",
          "type": "uint256"
        }
      ],
      "name": "escrows",
      "outputs": [
        {
          "internalType": "address",
          "name": "buyer",
          "type": "address"
        },
        {
          "internalType": "address",
          "name": "seller",
          "type": "address"
        },
        {
          "internalType": "uint256",
          "name": "amount",
          "type": "uint256"
        },
        {
          "internalType": "enum GAEHEscrow.EscrowStatus",
          "name": "status",
          "type": "uint8"
        },
        {
          "internalType": "uint256",
          "name": "lastPriceUpdate",
          "type": "uint256"
        }
      ],
      "stateMutability": "view",
      "type": "function"
    },
    {
      "inputs": [
        {
          "internalType": "uint256",
          "name": "escrowId",
          "type": "uint256"
        }
      ],
      "name": "finalizeEscrow",
      "outputs": [],
      "stateMutability": "nonpayable",
      "type": "function"
    },
    {
      "inputs": [],
      "name": "insuranceOracle",
      "outputs": [
        {
          "internalType": "contract IInsuranceOracle",
          "name": "",
          "type": "address"
        }
      ],
      "stateMutability": "view",
      "type": "function"
    },
    {
      "inputs": [],
      "name": "owner",
      "outputs": [
        {
          "internalType": "address",
          "name": "",
          "type": "address"
        }
      ],
      "stateMutability": "view",
      "type": "function"
    },
    {
      "inputs": [],
      "name": "renounceOwnership",
      "outputs": [],
      "stateMutability": "nonpayable",
      "type": "function"
    },
    {
      "inputs": [],
      "name": "stablecoin",
      "outputs": [
        {
          "internalType": "contract IERC20",
          "name": "",
          "type": "address"
        }
      ],
      "stateMutability": "view",
      "type": "function"
    },
    {
      "inputs": [
        {
          "internalType": "address",
          "name": "newOwner",
          "type": "address"
        }
      ],
      "name": "transferOwnership",
      "outputs": [],
      "stateMutability": "nonpayable",
      "type": "function"
    },
    {
      "inputs": [
        {
          "internalType": "uint256",
          "name": "escrowId",
          "type": "uint256"
        }
      ],
      "name": "verifyInsurance",
      "outputs": [],
      "stateMutability": "nonpayable",
      "type": "function"
    }
  ],
  "bytecode": "0x608060405234801561001057600080fd5b50604051610cb6380380610cb683398101604081905261002f916100fc565b338061005557604051631e4fbdf760e01b81526000600482015260240160405180910390fd5b61005e81610090565b50600180546001600160a01b039384166001600160a01b0319918216179091556002805492909316911617905561012f565b600080546001600160a01b038381166001600160a01b0319831681178455604051919092169283917f8be0079c531659141344cd1fd0a4f28419497f9722a3daafe3b4186f6b6457e09190a35050565b80516001600160a01b03811681146100f757600080fd5b919050565b6000806040838503121561010f57600080fd5b610118836100e0565b9150610126602084016100e0565b90509250929050565b610b788061013e6000396000f3fe608060405234801561001057600080fd5b50600436106100b45760003560e01c8063b43a405a11610071578063b43a405a14610196578063c4ac50a1146101a9578063c7ceafea146101bc578063e0182436146101c5578063e9cbd822146101d8578063f2fde38b146101eb57600080fd5b8063012f52ee146100b9578063137936fd146101205780634614874e14610135578063715018a61461015657806372bf079e1461015e5780638da5cb5b14610171575b600080fd5b6101066100c7366004610a12565b6003602081905260009182526040909120805460018201546002830154938301546004909301546001600160a01b0392831694929091169260ff169085565b604051610117959493929190610a41565b60405180910390f35b61013361012e366004610a12565b6101fe565b005b610148610143366004610aad565b61038e565b604051908152602001610117565b61013361055e565b61013361016c366004610a12565b610572565b6000546001600160a01b03165b6040516001600160a01b039091168152602001610117565b6101336101a4366004610a12565b61063f565b60025461017e906001600160a01b031681565b61014860045481565b6101336101d3366004610a12565b6107e6565b60015461017e906001600160a01b031681565b6101336101f9366004610ad7565b610957565b610206610995565b60016000828152600360208190526040909120015460ff16600481111561022f5761022f610a2b565b146102775760405162461bcd60e51b8152602060048201526013602482015272115cd8dc9bddc81b9bdd0818591a9d5cdd1959606a1b60448201526064015b60405180910390fd5b60025460405163137936fd60e01b8152600481018390526000916001600160a01b03169063137936fd906024016020604051808303816000875af11580156102c3573d6000803e3d6000fd5b505050506040513d601f19601f820116820180604052508101906102e79190610af9565b9050806103365760405162461bcd60e51b815260206004820152601d60248201527f496e737572616e636520766572696669636174696f6e206661696c6564000000604482015260640161026e565b600082815260036020818152604092839020909101805460ff191660021790559051821515815283917f407f6d6347d33597d66cbccf076e0edec1897f54ef9b615e3ceeea3b84ca7100910160405180910390a25050565b60048054600091829190826103a283610b1b565b909155506040805160a0810182523381526001600160a01b038781166020808401918252838501898152600060608601818152426080880152888252600393849052969020855181549086166001600160a01b03199182161782559351600180830180549290971691909516179094555160028401559351938201805495965092949193929160ff19169083600481111561043f5761043f610a2b565b0217905550608091909101516004918201556001546040516323b872dd60e01b81523392810192909252306024830152604482018590526001600160a01b0316906323b872dd906064016020604051808303816000875af11580156104a8573d6000803e3d6000fd5b505050506040513d601f19601f820116820180604052508101906104cc9190610af9565b6105095760405162461bcd60e51b815260206004820152600e60248201526d14185e5b595b9d0819985a5b195960921b604482015260640161026e565b836001600160a01b0316336001600160a01b0316827f9405ad0a6208539879349284d71265479b1623846f70303da1f9890d6e8c10a78660405161054f91815260200190565b60405180910390a49392505050565b610566610995565b61057060006109c2565b565b61057a610995565b60008181526003602081905260408220015460ff1660048111156105a0576105a0610a2b565b146105ed5760405162461bcd60e51b815260206004820152601d60248201527f496e76616c69642073746174757320666f722061646a7573746d656e74000000604482015260640161026e565b6000818152600360208190526040808320918201805460ff19166001179055426004909201919091555182917f8742d694346476bddf2bb509b2dbdc7745944d80470d56b68d119253f774d26691a250565b610647610995565b60026000828152600360208190526040909120015460ff16600481111561067057610670610a2b565b146106b65760405162461bcd60e51b8152602060048201526016602482015275125b9cdd5c985b98d9481b9bdd081d995c9a599a595960521b604482015260640161026e565b600180546000838152600360205260409081902092830154600290930154905163a9059cbb60e01b81526001600160a01b039384166004820152602481019190915291169063a9059cbb906044016020604051808303816000875af1158015610723573d6000803e3d6000fd5b505050506040513d601f19601f820116820180604052508101906107479190610af9565b61078a5760405162461bcd60e51b8152602060048201526014602482015273119a5b985b081c185e5b595b9d0819985a5b195960621b604482015260640161026e565b600081815260036020818152604092839020808301805460ff1916909317909255600290910154915191825282917fba737fc715de33eff4584df27bc4f73ce95709c537e32e6930a03d906ebb1c7d910160405180910390a250565b6000818152600360205260409020546001600160a01b031633146108445760405162461bcd60e51b815260206004820152601560248201527413db9b1e48189d5e595c8818d85b8818d85b98d95b605a1b604482015260640161026e565b600154600082815260036020526040908190208054600290910154915163a9059cbb60e01b81526001600160a01b03918216600482015260248101929092529091169063a9059cbb906044016020604051808303816000875af11580156108af573d6000803e3d6000fd5b505050506040513d601f19601f820116820180604052508101906108d39190610af9565b61090f5760405162461bcd60e51b815260206004820152600d60248201526c1499599d5b990819985a5b1959609a1b604482015260640161026e565b6000818152600360208190526040808320909101805460ff191660041790555182917f0d977c6b1a383ac5ce532b4a668d0ef9ad38478e1a5ff28abb221f4b682b264391a250565b61095f610995565b6001600160a01b03811661098957604051631e4fbdf760e01b81526000600482015260240161026e565b610992816109c2565b50565b6000546001600160a01b031633146105705760405163118cdaa760e01b815233600482015260240161026e565b600080546001600160a01b038381166001600160a01b0319831681178455604051919092169283917f8be0079c531659141344cd1fd0a4f28419497f9722a3daafe3b4186f6b6457e09190a35050565b600060208284031215610a2457600080fd5b5035919050565b634e487b7160e01b600052602160045260246000fd5b6001600160a01b038681168252851660208201526040810184905260a0810160058410610a7e57634e487b7160e01b600052602160045260246000fd5b6060820193909352608001529392505050565b80356001600160a01b0381168114610aa857600080fd5b919050565b60008060408385031215610ac057600080fd5b610ac983610a91565b946020939093013593505050565b600060208284031215610ae957600080fd5b610af282610a91565b9392505050565b600060208284031215610b0b57600080fd5b81518015158114610af257600080fd5b600060018201610b3b57634e487b7160e01b600052601160045260246000fd5b506001019056fea2646970667358221220b300528fc04d6e2938189eae38760e4f9efc2fce2fdc4320e07866669aa672c464736f6c63430008140033",
  "linkReferences": {},
  "deployedLinkReferences": {}
}