{
  "_format": "hh-sol-artifact-1",
  "contractName": "MockInsuranceOracle",
  "sourceName": "contracts/MockInsuranceOracle.sol",
  "abi": [
    {
      "inputs": [
        {
          "internalType": "uint256",
          "name": "",
          "type": "uint256"
        }
      ],
      "name": "verifyInsurance",
      "outputs": [
        {
          "internalType": "bool",
          "name": "",
          "type": "bool"
        }
      ],
      "stateMutability": "pure",
      "type": "function"
    }
  ],
  "bytecode": "0x6080604052348015600f57600080fd5b5060a08061001e6000396000f3fe6080604052348015600f57600080fd5b506004361060285760003560e01c8063137936fd14602d575b600080fd5b603e60383660046052565b50600190565b604051901515815260200160405180910390f35b600060208284031215606357600080fd5b503591905056fea264697066735822122010cc236c3e52ab682f0e00b73c6654d30126a45292de91780e91e6fe77ae19bf64736f6c63430008140033",
  "linkReferences": {},
  "deployedLinkReferences": {}
}