{
    "_format": "hh-sol-artifact-1",
    "contractName": "GAEHEscrow",
    "sourceName": "contracts/GAEHEscrow.sol",
    "abi": [
        {
            "inputs": [
                {
                    "internalType": "address",
                    "name": "_stablecoin",
                    "type": "address"
                },
                {
                    "internalType": "address",
                    "name": "_insuranceOracle",
                    "type": "address"
                }
            ],
            "stateMutability": "nonpayable",
            "type": "constructor"
        },
        {
            "inputs": [
                {
                    "internalType": "address",
                    "name": "owner",
                    "type": "address"
                }
            ],
            "name": "OwnableInvalidOwner",
            "type": "error"
        },
        {
            "inputs": [
                {
                    "internalType": "address",
                    "name": "account",
                    "type": "address"
                }
            ],
            "name": "OwnableUnauthorizedAccount",
            "type": "error"
        },
        {
            "anonymous": false,
            "inputs": [
                {
                    "indexed": true,
                    "internalType": "uint256",
                    "name": "escrowId",
                    "type": "uint256"
                }
            ],
            "name": "EscrowCancelled",
            "type": "event"
        },
        {
            "anonymous": false,
            "inputs": [
                {
                    "indexed": true,
                    "internalType": "uint256",
                    "name": "escrowId",
                    "type": "uint256"
                },
                {
                    "indexed": true,
                    "internalType": "address",
                    "name": "buyer",
                    "type": "address"
                },
                {
                    "indexed": true,
                    "internalType": "address",
                    "name": "seller",
                    "type": "address"
                },
                {
                    "indexed": false,
                    "internalType": "uint256",
                    "name": "amount",
                    "type": "uint256"
                }
            ],
            "name": "EscrowCreated",
            "type": "event"
        },
        {
            "anonymous": false,
            "inputs": [
                {
                    "indexed": true,
                    "internalType": "uint256",
                    "name": "escrowId",
                    "type": "uint256"
                },
                {
                    "indexed": false,
                    "internalType": "uint256",
                    "name": "finalAmountPaid",
                    "type": "uint256"
                }
            ],
            "name": "EscrowFinalized",
            "type": "event"
        },
        {
            "anonymous": false,
            "inputs": [
                {
                    "indexed": true,
                    "internalType": "uint256",
                    "name": "escrowId",
                    "type": "uint256"
                },
                {
                    "indexed": false,
                    "internalType": "bool",
                    "name": "verified",
                    "type": "bool"
                }
            ],
            "name": "InsuranceVerified",
            "type": "event"
        },
        {
            "anonymous": false,
            "inputs": [
                {
                    "indexed": true,
                    "internalType": "address",
                    "name": "previousOwner",
                    "type": "address"
                },
                {
                    "indexed": true,
                    "internalType": "address",
                    "name": "newOwner",
                    "type": "address"
                }
            ],
            "name": "OwnershipTransferred",
            "type": "event"
        },
        {
            "anonymous": false,
            "inputs": [
                {
                    "indexed": true,
                    "internalType": "uint256",
                    "name": "escrowId",
                    "type": "uint256"
                }
            ],
            "name": "PriceAdjusted",
            "type": "event"
        },
        {
            "inputs": [
                {
                    "internalType": "uint256",
                    "name": "escrowId",
                    "type": "uint256"
                }
            ],
            "name": "adjustPrice",
            "outputs": [],
            "stateMutability": "nonpayable",
            "type": "function"
        },
        {
            "inputs": [
                {
                    "internalType": "uint256",
                    "name": "escrowId",
                    "type": "uint256"
                }
            ],
            "name": "cancelEscrow",
            "outputs": [],
            "stateMutability": "nonpayable",
            "type": "function"
        },
        {
            "inputs": [
                {
                    "internalType": "address",
                    "name": "seller",
                    "type": "address"
                },
                {
                    "internalType": "uint256",
                    "name": "amount",
                    "type": "uint256"
                }
            ],
            "name": "createEscrow",
            "outputs": [
                {
                    "internalType": "uint256",
                    "name": "",
                    "type": "uint256"
                }
            ],
            "stateMutability": "nonpayable",
            "type": "function"
        },
        {
            "inputs": [],
            "name": "escrowCounter",
            "outputs": [
                {
                    "internalType": "uint256",
                    "name": "",
                    "type": "uint256"
                }
            ],
            "stateMutability": "view",
            "type": "function"
        },
        {
            "inputs": [
                {
                    "internalType": "uint256",
                    "name": "",
                    "type": "uint256"
                }
            ],
            "name": "escrows",
            "outputs": [
                {
                    "internalType": "address",
                    "name": "buyer",
                    "type": "address"
                },
                {
                    "internalType": "address",
                    "name": "seller",
                    "type": "address"
                },
                {
                    "internalType": "uint256",
                    "name": "amount",
                    "type": "uint256"
                },
                {
                    "internalType": "enum GAEHEscrow.EscrowStatus",
                    "name": "status",
                    "type": "uint8"
                },
                {
                    "internalType": "uint256",
                    "name": "lastPriceUpdate",
                    "type": "uint256"
                }
            ],
            "stateMutability": "view",
            "type": "function"
        },
        {
            "inputs": [
                {
                    "internalType": "uint256",
                    "name": "escrowId",
                    "type": "uint256"
                }
            ],
            "name": "finalizeEscrow",
            "outputs": [],
            "stateMutability": "nonpayable",
            "type": "function"
        },
        {
            "inputs": [],
            "name": "insuranceOracle",
            "outputs": [
                {
                    "internalType": "contract IInsuranceOracle",
                    "name": "",
                    "type": "address"
                }
            ],
            "stateMutability": "view",
            "type": "function"
        },
        {
            "inputs": [],
            "name": "owner",
            "outputs": [
                {
                    "internalType": "address",
                    "name": "",
                    "type": "address"
                }
            ],
            "stateMutability": "view",
            "type": "function"
        },
        {
            "inputs": [],
            "name": "renounceOwnership",
            "outputs": [],
            "stateMutability": "nonpayable",
            "type": "function"
        },
        {
            "inputs": [],
            "name": "stablecoin",
            "outputs": [
                {
                    "internalType": "contract IERC20",
                    "name": "",
                    "type": "address"
                }
            ],
            "stateMutability": "view",
            "type": "function"
        },
        {
            "inputs": [
                {
                    "internalType": "address",
                    "name": "newOwner",
                    "type": "address"
                }
            ],
            "name": "transferOwnership",
            "outputs": [],
            "stateMutability": "nonpayable",
            "type": "function"
        },
        {
            "inputs": [
                {
                    "internalType": "uint256",
                    "name": "escrowId",
                    "type": "uint256"
                }
            ],
            "name": "verifyInsurance",
            "outputs": [],
            "stateMutability": "nonpayable",
            "type": "function"
        }
    ],
    "bytecode": "0x60806040523480156200001157600080fd5b5060405162001a7638038062001a76833981810160405281019062000037919062000277565b33600073ffffffffffffffffffffffffffffffffffffffff168173ffffffffffffffffffffffffffffffffffffffff1603620000ad5760006040517f1e4fbdf7000000000000000000000000000000000000000000000000000000008152600401620000a49190620002cf565b60405180910390fd5b620000be816200014960201b60201c565b5081600160006101000a81548173ffffffffffffffffffffffffffffffffffffffff021916908373ffffffffffffffffffffffffffffffffffffffff16021790555080600260006101000a81548173ffffffffffffffffffffffffffffffffffffffff021916908373ffffffffffffffffffffffffffffffffffffffff1602179055505050620002ec565b60008060009054906101000a900473ffffffffffffffffffffffffffffffffffffffff169050816000806101000a81548173ffffffffffffffffffffffffffffffffffffffff021916908373ffffffffffffffffffffffffffffffffffffffff1602179055508173ffffffffffffffffffffffffffffffffffffffff168173ffffffffffffffffffffffffffffffffffffffff167f8be0079c531659141344cd1fd0a4f28419497f9722a3daafe3b4186f6b6457e060405160405180910390a35050565b600080fd5b600073ffffffffffffffffffffffffffffffffffffffff82169050919050565b60006200023f8262000212565b9050919050565b620002518162000232565b81146200025d57600080fd5b50565b600081519050620002718162000246565b92915050565b600080604083850312156200029157620002906200020d565b5b6000620002a18582860162000260565b9250506020620002b48582860162000260565b9150509250929050565b620002c98162000232565b82525050565b6000602082019050620002e66000830184620002be565b92915050565b61177a80620002fc6000396000f3fe608060405234801561001057600080fd5b50600436106100b45760003560e01c8063b43a405a11610071578063b43a405a1461017d578063c4ac50a114610199578063c7ceafea146101b7578063e0182436146101d5578063e9cbd822146101f1578063f2fde38b1461020f576100b4565b8063012f52ee146100b9578063137936fd146100ed5780634614874e14610109578063715018a61461013957806372bf079e146101435780638da5cb5b1461015f575b600080fd5b6100d360048036038101906100ce9190610fa1565b61022b565b6040516100e4959493929190611095565b60405180910390f35b61010760048036038101906101029190610fa1565b6102ae565b005b610123600480360381019061011e9190611114565b61049d565b6040516101309190611154565b60405180910390f35b610141610758565b005b61015d60048036038101906101589190610fa1565b61076c565b005b610167610888565b604051610174919061116f565b60405180910390f35b61019760048036038101906101929190610fa1565b6108b1565b005b6101a1610afd565b6040516101ae91906111e9565b60405180910390f35b6101bf610b23565b6040516101cc9190611154565b60405180910390f35b6101ef60048036038101906101ea9190610fa1565b610b29565b005b6101f9610d67565b6040516102069190611225565b60405180910390f35b61022960048036038101906102249190611240565b610d8d565b005b60036020528060005260406000206000915090508060000160009054906101000a900473ffffffffffffffffffffffffffffffffffffffff16908060010160009054906101000a900473ffffffffffffffffffffffffffffffffffffffff16908060020154908060030160009054906101000a900460ff16908060040154905085565b6102b6610e13565b600160048111156102ca576102c961101e565b5b6003600083815260200190815260200160002060030160009054906101000a900460ff166004811115610300576102ff61101e565b5b14610340576040517f08c379a0000000000000000000000000000000000000000000000000000000008152600401610337906112ca565b60405180910390fd5b6000600260009054906101000a900473ffffffffffffffffffffffffffffffffffffffff1673ffffffffffffffffffffffffffffffffffffffff1663137936fd836040518263ffffffff1660e01b815260040161039d9190611154565b6020604051808303816000875af11580156103bc573d6000803e3d6000fd5b505050506040513d601f19601f820116820180604052508101906103e09190611322565b905080610422576040517f08c379a00000000000000000000000000000000000000000000000000000000081526004016104199061139b565b60405180910390fd5b60026003600084815260200190815260200160002060030160006101000a81548160ff0219169083600481111561045c5761045b61101e565b5b0217905550817f407f6d6347d33597d66cbccf076e0edec1897f54ef9b615e3ceeea3b84ca71008260405161049191906113ca565b60405180910390a25050565b600080600460008154809291906104b390611414565b9190505590506040518060a001604052803373ffffffffffffffffffffffffffffffffffffffff1681526020018573ffffffffffffffffffffffffffffffffffffffff168152602001848152602001600060048111156105165761051561101e565b5b8152602001428152506003600083815260200190815260200160002060008201518160000160006101000a81548173ffffffffffffffffffffffffffffffffffffffff021916908373ffffffffffffffffffffffffffffffffffffffff16021790555060208201518160010160006101000a81548173ffffffffffffffffffffffffffffffffffffffff021916908373ffffffffffffffffffffffffffffffffffffffff1602179055506040820151816002015560608201518160030160006101000a81548160ff021916908360048111156105f5576105f461101e565b5b021790555060808201518160040155905050600160009054906101000a900473ffffffffffffffffffffffffffffffffffffffff1673ffffffffffffffffffffffffffffffffffffffff166323b872dd3330866040518463ffffffff1660e01b81526004016106669392919061145c565b6020604051808303816000875af1158015610685573d6000803e3d6000fd5b505050506040513d601f19601f820116820180604052508101906106a99190611322565b6106e8576040517f08c379a00000000000000000000000000000000000000000000000000000000081526004016106df906114df565b60405180910390fd5b8373ffffffffffffffffffffffffffffffffffffffff163373ffffffffffffffffffffffffffffffffffffffff16827f9405ad0a6208539879349284d71265479b1623846f70303da1f9890d6e8c10a7866040516107469190611154565b60405180910390a48091505092915050565b610760610e13565b61076a6000610e9a565b565b610774610e13565b600060048111156107885761078761101e565b5b6003600083815260200190815260200160002060030160009054906101000a900460ff1660048111156107be576107bd61101e565b5b146107fe576040517f08c379a00000000000000000000000000000000000000000000000000000000081526004016107f59061154b565b60405180910390fd5b60016003600083815260200190815260200160002060030160006101000a81548160ff021916908360048111156108385761083761101e565b5b0217905550426003600083815260200190815260200160002060040181905550807f8742d694346476bddf2bb509b2dbdc7745944d80470d56b68d119253f774d26660405160405180910390a250565b60008060009054906101000a900473ffffffffffffffffffffffffffffffffffffffff16905090565b6108b9610e13565b600260048111156108cd576108cc61101e565b5b6003600083815260200190815260200160002060030160009054906101000a900460ff1660048111156109035761090261101e565b5b14610943576040517f08c379a000000000000000000000000000000000000000000000000000000000815260040161093a906115b7565b60405180910390fd5b600160009054906101000a900473ffffffffffffffffffffffffffffffffffffffff1673ffffffffffffffffffffffffffffffffffffffff1663a9059cbb6003600084815260200190815260200160002060010160009054906101000a900473ffffffffffffffffffffffffffffffffffffffff1660036000858152602001908152602001600020600201546040518363ffffffff1660e01b81526004016109ec9291906115d7565b6020604051808303816000875af1158015610a0b573d6000803e3d6000fd5b505050506040513d601f19601f82011682018060405250810190610a2f9190611322565b610a6e576040517f08c379a0000000000000000000000000000000000000000000000000000000008152600401610a659061164c565b60405180910390fd5b600380600083815260200190815260200160002060030160006101000a81548160ff02191690836004811115610aa757610aa661101e565b5b0217905550807fba737fc715de33eff4584df27bc4f73ce95709c537e32e6930a03d906ebb1c7d6003600084815260200190815260200160002060020154604051610af29190611154565b60405180910390a250565b600260009054906101000a900473ffffffffffffffffffffffffffffffffffffffff1681565b60045481565b6003600082815260200190815260200160002060000160009054906101000a900473ffffffffffffffffffffffffffffffffffffffff1673ffffffffffffffffffffffffffffffffffffffff163373ffffffffffffffffffffffffffffffffffffffff1614610bcd576040517f08c379a0000000000000000000000000000000000000000000000000000000008152600401610bc4906116b8565b60405180910390fd5b600160009054906101000a900473ffffffffffffffffffffffffffffffffffffffff1673ffffffffffffffffffffffffffffffffffffffff1663a9059cbb6003600084815260200190815260200160002060000160009054906101000a900473ffffffffffffffffffffffffffffffffffffffff1660036000858152602001908152602001600020600201546040518363ffffffff1660e01b8152600401610c769291906115d7565b6020604051808303816000875af1158015610c95573d6000803e3d6000fd5b505050506040513d601f19601f82011682018060405250810190610cb99190611322565b610cf8576040517f08c379a0000000000000000000000000000000000000000000000000000000008152600401610cef90611724565b60405180910390fd5b60046003600083815260200190815260200160002060030160006101000a81548160ff02191690836004811115610d3257610d3161101e565b5b0217905550807f0d977c6b1a383ac5ce532b4a668d0ef9ad38478e1a5ff28abb221f4b682b264360405160405180910390a250565b600160009054906101000a900473ffffffffffffffffffffffffffffffffffffffff1681565b610d95610e13565b600073ffffffffffffffffffffffffffffffffffffffff168173ffffffffffffffffffffffffffffffffffffffff1603610e075760006040517f1e4fbdf7000000000000000000000000000000000000000000000000000000008152600401610dfe919061116f565b60405180910390fd5b610e1081610e9a565b50565b610e1b610f5e565b73ffffffffffffffffffffffffffffffffffffffff16610e39610888565b73ffffffffffffffffffffffffffffffffffffffff1614610e9857610e5c610f5e565b6040517f118cdaa7000000000000000000000000000000000000000000000000000000008152600401610e8f919061116f565b60405180910390fd5b565b60008060009054906101000a900473ffffffffffffffffffffffffffffffffffffffff169050816000806101000a81548173ffffffffffffffffffffffffffffffffffffffff021916908373ffffffffffffffffffffffffffffffffffffffff1602179055508173ffffffffffffffffffffffffffffffffffffffff168173ffffffffffffffffffffffffffffffffffffffff167f8be0079c531659141344cd1fd0a4f28419497f9722a3daafe3b4186f6b6457e060405160405180910390a35050565b600033905090565b600080fd5b6000819050919050565b610f7e81610f6b565b8114610f8957600080fd5b50565b600081359050610f9b81610f75565b92915050565b600060208284031215610fb757610fb6610f66565b5b6000610fc584828501610f8c565b91505092915050565b600073ffffffffffffffffffffffffffffffffffffffff82169050919050565b6000610ff982610fce565b9050919050565b61100981610fee565b82525050565b61101881610f6b565b82525050565b7f4e487b7100000000000000000000000000000000000000000000000000000000600052602160045260246000fd5b6005811061105e5761105d61101e565b5b50565b600081905061106f8261104d565b919050565b600061107f82611061565b9050919050565b61108f81611074565b82525050565b600060a0820190506110aa6000830188611000565b6110b76020830187611000565b6110c4604083018661100f565b6110d16060830185611086565b6110de608083018461100f565b9695505050505050565b6110f181610fee565b81146110fc57600080fd5b50565b60008135905061110e816110e8565b92915050565b6000806040838503121561112b5761112a610f66565b5b6000611139858286016110ff565b925050602061114a85828601610f8c565b9150509250929050565b6000602082019050611169600083018461100f565b92915050565b60006020820190506111846000830184611000565b92915050565b6000819050919050565b60006111af6111aa6111a584610fce565b61118a565b610fce565b9050919050565b60006111c182611194565b9050919050565b60006111d3826111b6565b9050919050565b6111e3816111c8565b82525050565b60006020820190506111fe60008301846111da565b92915050565b600061120f826111b6565b9050919050565b61121f81611204565b82525050565b600060208201905061123a6000830184611216565b92915050565b60006020828403121561125657611255610f66565b5b6000611264848285016110ff565b91505092915050565b600082825260208201905092915050565b7f457363726f77206e6f742061646a757374656400000000000000000000000000600082015250565b60006112b460138361126d565b91506112bf8261127e565b602082019050919050565b600060208201905081810360008301526112e3816112a7565b9050919050565b60008115159050919050565b6112ff816112ea565b811461130a57600080fd5b50565b60008151905061131c816112f6565b92915050565b60006020828403121561133857611337610f66565b5b60006113468482850161130d565b91505092915050565b7f496e737572616e636520766572696669636174696f6e206661696c6564000000600082015250565b6000611385601d8361126d565b91506113908261134f565b602082019050919050565b600060208201905081810360008301526113b481611378565b9050919050565b6113c4816112ea565b82525050565b60006020820190506113df60008301846113bb565b92915050565b7f4e487b7100000000000000000000000000000000000000000000000000000000600052601160045260246000fd5b600061141f82610f6b565b91507fffffffffffffffffffffffffffffffffffffffffffffffffffffffffffffffff8203611451576114506113e5565b5b600182019050919050565b60006060820190506114716000830186611000565b61147e6020830185611000565b61148b604083018461100f565b949350505050565b7f5061796d656e74206661696c6564000000000000000000000000000000000000600082015250565b60006114c9600e8361126d565b91506114d482611493565b602082019050919050565b600060208201905081810360008301526114f8816114bc565b9050919050565b7f496e76616c69642073746174757320666f722061646a7573746d656e74000000600082015250565b6000611535601d8361126d565b9150611540826114ff565b602082019050919050565b6000602082019050818103600083015261156481611528565b9050919050565b7f496e737572616e6365206e6f7420766572696669656400000000000000000000600082015250565b60006115a160168361126d565b91506115ac8261156b565b602082019050919050565b600060208201905081810360008301526115d081611594565b9050919050565b60006040820190506115ec6000830185611000565b6115f9602083018461100f565b9392505050565b7f46696e616c207061796d656e74206661696c6564000000000000000000000000600082015250565b600061163660148361126d565b915061164182611600565b602082019050919050565b6000602082019050818103600083015261166581611629565b9050919050565b7f4f6e6c792062757965722063616e2063616e63656c0000000000000000000000600082015250565b60006116a260158361126d565b91506116ad8261166c565b602082019050919050565b600060208201905081810360008301526116d181611695565b9050919050565b7f526566756e64206661696c656400000000000000000000000000000000000000600082015250565b600061170e600d8361126d565b9150611719826116d8565b602082019050919050565b6000602082019050818103600083015261173d81611701565b905091905056fea264697066735822122024780dccff19c6b3de2b70eb127dcd790db9e9d2c454176ba9216d41506208d464736f6c63430008140033",
    "linkReferences": {},
    "deployedLinkReferences": {}
}