{
  "_format": "hh-sol-artifact-1",
  "contractName": "MockInsuranceOracle",
  "sourceName": "contracts/MockInsuranceOracle.sol",
  "abi": [
    {
      "inputs": [
        {
          "internalType": "uint256",
          "name": "",
          "type": "uint256"
        }
      ],
      "name": "verifyInsurance",
      "outputs": [
        {
          "internalType": "bool",
          "name": "",
          "type": "bool"
        }
      ],
      "stateMutability": "pure",
      "type": "function"
    }
  ],
  "bytecode": "0x608060405234801561001057600080fd5b50610128806100206000396000f3fe6080604052348015600f57600080fd5b506004361060285760003560e01c8063137936fd14602d575b600080fd5b60436004803603810190603f91906098565b6057565b604051604e919060d9565b60405180910390f35b600060019050919050565b600080fd5b6000819050919050565b6078816067565b8114608257600080fd5b50565b6000813590506092816071565b92915050565b60006020828403121560ab5760aa6062565b5b600060b7848285016085565b91505092915050565b60008115159050919050565b60d38160c0565b82525050565b600060208201905060ec600083018460cc565b9291505056fea26469706673582212209a65a6245dc998a97dcf6021f7416cfce178f6dacabbda6cdd90281aeca5938464736f6c63430008140033",
  "linkReferences": {},
  "deployedLinkReferences": {}
}