{
  "_format": "hh-sol-artifact-1",
  "contractName": "FtsoV2FeedConsumer",
  "sourceName": "contracts/FtsoV2FeedConsumer.sol",
  "abi": [
    {
      "inputs": [],
      "stateMutability": "nonpayable",
      "type": "constructor"
    },
    {
      "inputs": [],
      "name": "flrUsdId",
      "outputs": [
        {
          "internalType": "bytes21",
          "name": "",
          "type": "bytes21"
        }
      ],
      "stateMutability": "view",
      "type": "function"
    },
    {
      "inputs": [],
      "name": "getAvailablePriceFeedNames",
      "outputs": [
        {
          "internalType": "string[]",
          "name": "feedNames",
          "type": "string[]"
        }
      ],
      "stateMutability": "view",
      "type": "function"
    },
    {
      "inputs": [],
      "name": "getAvailablePriceFeeds",
      "outputs": [
        {
          "internalType": "bytes21[]",
          "name": "",
          "type": "bytes21[]"
        }
      ],
      "stateMutability": "view",
      "type": "function"
    },
    {
      "inputs": [],
      "name": "getCurrentPrice",
      "outputs": [
        {
          "internalType": "uint256",
          "name": "",
          "type": "uint256"
        },
        {
          "internalType": "int8",
          "name": "",
          "type": "int8"
        },
        {
          "internalType": "uint64",
          "name": "",
          "type": "uint64"
        }
      ],
      "stateMutability": "view",
      "type": "function"
    },
    {
      "inputs": [
        {
          "internalType": "bytes21",
          "name": "feedId",
          "type": "bytes21"
        }
      ],
      "name": "getFeedPrice",
      "outputs": [
        {
          "internalType": "uint256",
          "name": "",
          "type": "uint256"
        },
        {
          "internalType": "int8",
          "name": "",
          "type": "int8"
        },
        {
          "internalType": "uint64",
          "name": "",
          "type": "uint64"
        }
      ],
      "stateMutability": "view",
      "type": "function"
    },
    {
      "inputs": [
        {
          "internalType": "string",
          "name": "feedName",
          "type": "string"
        }
      ],
      "name": "getFeedPriceByName",
      "outputs": [
        {
          "internalType": "uint256",
          "name": "",
          "type": "uint256"
        },
        {
          "internalType": "int8",
          "name": "",
          "type": "int8"
        },
        {
          "internalType": "uint64",
          "name": "",
          "type": "uint64"
        }
      ],
      "stateMutability": "view",
      "type": "function"
    },
    {
      "inputs": [],
      "name": "getFlrUsdPrice",
      "outputs": [
        {
          "internalType": "uint256",
          "name": "",
          "type": "uint256"
        },
        {
          "internalType": "int8",
          "name": "",
          "type": "int8"
        },
        {
          "internalType": "uint64",
          "name": "",
          "type": "uint64"
        }
      ],
      "stateMutability": "view",
      "type": "function"
    }
  ],
  "bytecode": "0x6080604052600280546001600160a81b031916665193148bd554d1606a1b17905534801561002c57600080fd5b50610035610082565b600080546001600160a01b0319166001600160a01b039290921691909117905561005d61014b565b600180546001600160a01b0319166001600160a01b03929092169190911790556101e1565b600073ad67fe66660fb8dfe9d6b1b4240d8650e30f60196001600160a01b031663159354a26040516020016100d190602080825260069082015265233a39b7ab1960d11b604082015260600190565b604051602081830303815290604052805190602001206040518263ffffffff1660e01b815260040161010591815260200190565b602060405180830381865afa158015610122573d6000803e3d6000fd5b505050506040513d601f19601f8201168201806040525081019061014691906101b1565b905090565b600073ad67fe66660fb8dfe9d6b1b4240d8650e30f60196001600160a01b031663159354a26040516020016100d19060208082526013908201527f4674736f466565644964436f6e76657274657200000000000000000000000000604082015260600190565b6000602082840312156101c357600080fd5b81516001600160a01b03811681146101da57600080fd5b9392505050565b610b0f806101f06000396000f3fe608060405234801561001057600080fd5b506004361061007d5760003560e01c8063d790bd821161005b578063d790bd82146100df578063eb91d37e146100f2578063ecd426f4146100fa578063f8d2e7ba1461012057600080fd5b806308200a7c14610082578063d7549762146100b7578063d77a18eb146100ca575b600080fd5b61008a610135565b6040805193845260009290920b602084015267ffffffffffffffff16908201526060015b60405180910390f35b61008a6100c5366004610712565b6101cc565b6100d26102d9565b6040516100ae91906107ed565b61008a6100ed366004610868565b6103c1565b61008a610450565b6002546101079060581b81565b6040516001600160581b031990911681526020016100ae565b610128610493565b6040516100ae919061088c565b600080546002546040516349f4fc0360e11b815260589190911b6001600160581b0319166004820152829182918291829182916001600160a01b0316906393e9f806906024015b606060405180830381865afa158015610199573d6000803e3d6000fd5b505050506040513d601f19601f820116820180604052508101906101bd91906108da565b91989097509095509350505050565b60018054604051633e2dea0960e21b81526000928392839283926001600160a01b039092169163f8b7a8249161020791908990600401610930565b602060405180830381865afa158015610224573d6000803e3d6000fd5b505050506040513d601f19601f820116820180604052508101906102489190610954565b600080546040516349f4fc0360e11b81526001600160581b0319841660048201529293509091829182916001600160a01b03909116906393e9f80690602401606060405180830381865afa1580156102a4573d6000803e3d6000fd5b505050506040513d601f19601f820116820180604052508101906102c891906108da565b919a90995090975095505050505050565b606060006102e5610493565b9050805167ffffffffffffffff811115610301576103016106a2565b60405190808252806020026020018201604052801561033457816020015b606081526020019060019003908161031f5790505b50915060005b81518110156103bc5781818151811061035557610355610971565b602002602001015160405160200161037d91906001600160581b031991909116815260150190565b60405160208183030381529060405283828151811061039e5761039e610971565b602002602001018190525080806103b490610987565b91505061033a565b505090565b600080546040516349f4fc0360e11b81526001600160581b031984166004820152829182918291829182916001600160a01b0316906393e9f80690602401606060405180830381865afa15801561041c573d6000803e3d6000fd5b505050506040513d601f19601f8201168201806040525081019061044091906108da565b9199909850909650945050505050565b600080546040516349f4fc0360e11b8152665155120bd554d160c21b6004820152829182918291829182916001600160a01b0316906393e9f8069060240161017c565b6060600061049f6105c2565b90506000816001600160a01b03166331038aad6040518163ffffffff1660e01b8152600401600060405180830381865afa1580156104e1573d6000803e3d6000fd5b505050506040513d6000823e601f3d908101601f1916820160405261050991908101906109ae565b90506000815167ffffffffffffffff811115610527576105276106a2565b604051908082528060200260200182016040528015610550578160200160208202803683370190505b50905060005b82518110156105ba5782818151811061057157610571610971565b60200260200101516000015182828151811061058f5761058f610971565b6001600160581b031990921660209283029190910190910152806105b281610987565b915050610556565b509392505050565b600073ad67fe66660fb8dfe9d6b1b4240d8650e30f60196001600160a01b031663159354a26040516020016106289060208082526018908201527f4661737455706461746573436f6e66696775726174696f6e0000000000000000604082015260600190565b604051602081830303815290604052805190602001206040518263ffffffff1660e01b815260040161065c91815260200190565b602060405180830381865afa158015610679573d6000803e3d6000fd5b505050506040513d601f19601f8201168201806040525081019061069d9190610ab0565b905090565b634e487b7160e01b600052604160045260246000fd5b6040516060810167ffffffffffffffff811182821017156106db576106db6106a2565b60405290565b604051601f8201601f1916810167ffffffffffffffff8111828210171561070a5761070a6106a2565b604052919050565b6000602080838503121561072557600080fd5b823567ffffffffffffffff8082111561073d57600080fd5b818501915085601f83011261075157600080fd5b813581811115610763576107636106a2565b610775601f8201601f191685016106e1565b9150808252868482850101111561078b57600080fd5b8084840185840137600090820190930192909252509392505050565b6000815180845260005b818110156107cd576020818501810151868301820152016107b1565b506000602082860101526020601f19601f83011685010191505092915050565b6000602080830181845280855180835260408601915060408160051b870101925083870160005b8281101561084257603f198886030184526108308583516107a7565b94509285019290850190600101610814565b5092979650505050505050565b6001600160581b03198116811461086557600080fd5b50565b60006020828403121561087a57600080fd5b81356108858161084f565b9392505050565b6020808252825182820181905260009190848201906040850190845b818110156108ce5783516001600160581b031916835292840192918401916001016108a8565b50909695505050505050565b6000806000606084860312156108ef57600080fd5b8351925060208401518060000b811461090757600080fd5b604085015190925067ffffffffffffffff8116811461092557600080fd5b809150509250925092565b60ff8316815260406020820152600061094c60408301846107a7565b949350505050565b60006020828403121561096657600080fd5b81516108858161084f565b634e487b7160e01b600052603260045260246000fd5b6000600182016109a757634e487b7160e01b600052601160045260246000fd5b5060010190565b600060208083850312156109c157600080fd5b825167ffffffffffffffff808211156109d957600080fd5b818501915085601f8301126109ed57600080fd5b8151818111156109ff576109ff6106a2565b610a0d848260051b016106e1565b81815284810192506060918202840185019188831115610a2c57600080fd5b938501935b82851015610aa45780858a031215610a495760008081fd5b610a516106b8565b8551610a5c8161084f565b81528587015163ffffffff81168114610a755760008081fd5b8188015260408681015162ffffff81168114610a915760008081fd5b9082015284529384019392850192610a31565b50979650505050505050565b600060208284031215610ac257600080fd5b81516001600160a01b038116811461088557600080fdfea2646970667358221220f9de8665f0464dd10c827bb55b326fe002ec4730376cb8aeb0da76ac3df6a02c64736f6c63430008140033",
  "linkReferences": {},
  "deployedLinkReferences": {}
}