{
  "_format": "hh-sol-artifact-1",
  "contractName": "FtsoV2FeedConsumer",
  "sourceName": "contracts/FtsoV2FeedConsumer.sol",
  "abi": [
    {
      "inputs": [
        {
          "internalType": "address",
          "name": "_ftsoAddress",
          "type": "address"
        }
      ],
      "stateMutability": "nonpayable",
      "type": "constructor"
    },
    {
      "inputs": [],
      "name": "getCurrentPrice",
      "outputs": [
        {
          "internalType": "uint256",
          "name": "",
          "type": "uint256"
        }
      ],
      "stateMutability": "view",
      "type": "function"
    }
  ],
  "bytecode": "0x608060405234801561001057600080fd5b506040516101a03803806101a083398101604081905261002f91610054565b600080546001600160a01b0319166001600160a01b0392909216919091179055610084565b60006020828403121561006657600080fd5b81516001600160a01b038116811461007d57600080fd5b9392505050565b61010d806100936000396000f3fe6080604052348015600f57600080fd5b506004361060285760003560e01c8063eb91d37e14602d575b600080fd5b60336045565b60405190815260200160405180910390f35b60008060009054906101000a90046001600160a01b03166001600160a01b031663eb91d37e6040518163ffffffff1660e01b8152600401602060405180830381865afa1580156098573d6000803e3d6000fd5b505050506040513d601f19601f8201168201806040525081019060ba919060bf565b905090565b60006020828403121560d057600080fd5b505191905056fea26469706673582212209eb93f0980e4a66e25588e0e85ee7dd3e7de4789efa79685a85795a1b75bf08e64736f6c63430008140033",
  "linkReferences": {},
  "deployedLinkReferences": {}
}